:10098C00120BE51208D1C2AF120BC0120B2ED2AF54
:10099C007F0A120ABA12046C120A73120B95120710
:0909AC0066120ADA12095F80EC00
:100ABA008F27120BF67F9012089C120BD37F4012DD
:100ACA00089C120BD3AF2712089C120BD3020C21DD
:10090200120BF67F9012089C120BD37F4112089CA7
:10091200120BD3120BF67F9112089C120BD3120A00
:0E092200037527008F28120BD3120C21AF286B
:0109300022A4
:100B95001209027E007C017DF41202FC1C7DFF120D
:060BA500030E8E368F37AF
:010BAB002227
:10046C00C2AF1209DCD2AF7FCC1209B57F4412099E
:10047C00B57FE87E03120C09C2AF1209DCD2AF7F44
:10048C00CC1209B57FBE1209B5120A978F27120A32
:10049C00977538008F39E539F538E527F539E538A2
:1004AC0020E353C4F854F0C868F538E539C4540F48
:1004BC0048F539AE38FF7C007D0A1202FC8E388F6D
:1004CC0039E527540FFCE412022EE4FBFA7920786C
:1004DC003F12011EC004C005C006C007AC38AD39C0
:1004EC00E4120229D003D002D001D00012002D1248
:0604FC0002628E388F3908
:0105020022D6
:10093100071880828486888A8C071181838587893C
:0B0941008B8D070A29592301010123B7
:1008D100E4FD7F8E12000EE4F508C3E50894077469
:1008E100809480501574182508F8E6FF740A2508CD
:1008F100F8E6FD12000E050880E07D807F8E020083
:010901000EE7
:100A7300E4F509C3E5099407748094805015741153
:100A83002509F8E6FF120826740A2509F8A60705C2
:030A93000980E0F7
:010A9600223D
:100AF700E4FEEEC3940874809480500FC297EF13FE
:0B0B070092A1EFC313FFD2970E80E70E
:010B120022C0
:10000E00C29300C29700D29300120AF7AF05120AEC
:04001E00F7C2932270
:10082600E4FDC29300C29700D29300120AF7E4FFD8
:10083600EFC39408748094805011C297EDC313FDE2
:1008460030A103430580D2970F80E5C29300C2977B
:0C08560000D29700C2A100D2A100AF05A3
:010862002273
:0B0C2D00EF1FAC0670011E4C70F62299
:10086300EF603224FB601314601914601F240370BB
:1008730027E5A0541F4480F5A022E5A0541F44A0FF
:10088300F5A022E5A0541F44C0F5A022E5A0541F03
:0908930044E0F5A02253A01F224D
:100B1300AE077580FF7F061208638E807F017E001B
:0B0B2300120C2D7F071208638D80224A
:040B4900D2A07F05B2
:100B4D00000000000000000000000000000000AEEA
:060B5D00071FEE70EB2201
:0F0BF600D2A1120B49C2A17F05120B4DC2A02242
:0C0C2100C2A1120B49D2A17F05020B4DAD
:02089C00AD07A6
:10089E00E4FCECC39408748094805024C2A07F05BD
:1008AE00120B4DED30E704D2A18002C2A17F0512DA
:1008BE000B4DD2A0ED25E0FD7F05120B4D0C80D225
:0208CE00C2A0C6
:0108D0002205
:100A0300E4FCECC39408748094805017120B49EDF6
:100A130025E0FD30A103430501C2A07F05120B4D64
:050A23000C80DFAF05AF
:010A280022AB
:100BD300120B49A2A1E433FDC2A07F05120B4DAF56
:010BE300050C
:010BE40022EE
:100B7D00C2A0EF24FF92A17F05120B4D120B49C2AB
:080B8D00A0D2A17F05020B4D6F
:1007E800EF24FE601414601B1460222403702EC2D0
:1007F800B0D2B3D2B2D2B1801CC2B1D2B3D2B2D2CB
:10080800B08012C2B2D2B3D2B1D2B08008C2B3D2D1
:0E081800B2D2B1D2B0D2B4D2B5D2C2D2C422C2
:04094C00023A00FF6C
:1007A900ED701AEF14FF7E007401A807088005C3D5
:1007B90033CE33CED8F9423BEE423A801EEF14FFD6
:1007C9007E007401A807088005C333CE33CED8F95B
:0F07D900F4FFEEF4FEEF523BEE523A853B8022E6
:100BE5007F05120863E4F5807F041208637580FFB2
:010BF50022DD
:03095000011F0183
:080C42007F3B7E5ADEFEDFFC61
:010C4A002287
:100A2900E51F64017003020625E51F6402700302D5
:100A3900069DE51F64037003020371E51F640470DA
:050A4900031207152255
:100ADA007F041207E820B414120C4220B40B051F3D
:0D0AEA00E51F64057003751F0130B4FD2287
:100766007F041207E820C419120C4220C410053574
:10077600C3E535946374809480400375356330C453
:10078600FD7F041207E820C219120C4220C2101580
:1007960035D3E53594097480948050037535093056
:0307A600C2FD226F
:040C05007F327E00BC
:0B0C0900EF1FAC0670011E4C70F622BD
:0209B500AD078C
:1009B700E4FBEBC39408748094805012C294ED1347
:1009C7009294120C05D294EDC313FD0B80E47F3291
:0509D7007E00020C0986
:100A9700E4FBEBC39408748094805014C294EDC3B4
:100AA70013FDD294309403430580120C050B80E2AA
:020AB700AF0589
:010AB900221A
:1009DC00C200D2947F787E00120C09C2947F207ED4
:1009EC0003120C09D2947F647E00120C09A294921B
:0609FC0000120C05A20030
:010A020022D1
:100B6300C0F9A4B0999282F880908883C6A1868E3A
:0A0B73007FBF01020408102040803B
:0309530001351754
:100625000531AF31EF3395E0FEEF64064E7003758B
:100635003101E53124FE601514602414602914602D
:100645003624047042E4F52175220A803A752105A5
:10065500AE38AF397C007D6412030E8F2280287579
:1006650021067522108020752106AE38AF397C0031
:100675007D0A12030E8007752107AE38AF397C005D
:100685007D0A12030E8D22E521900B7593FFE5225D
:08069500900B6393FD020B13AF
:10069D000532AF32EF3395E0FEEF64064E70037511
:1006AD003201E53224FE60151460241460291460B3
:1006BD003624047042E4F52175220B803A7521052C
:1006CD00AE36AF377C007D6412030E8F2280287505
:1006DD0021067522108020752106AE36AF377C00BD
:1006ED007D0A12030E8007752107AE36AF377C00E9
:1006FD007D0A12030E8D22E521900B7593FFE522E5
:08070D00900B6393FD020B1336
:10037100E50EC4F854F0C868FEE50FC4540F48FFF9
:100381007C007D0A1202FCE50F540F2FF524EC3E90
:10039100F523E50CC4F854F0C868FEE50DC4540F0C
:1003A10048FF1202FCE50D540F2FF526EC3EF52512
:1003B100E50AC4F854F0C868FEE50BC4540F48FFC1
:1003C1001202FCE50B540F2FFFEC3EFE0533AD335B
:1003D100ED3395E0FCED64094C7003753301E533B1
:1003E10014B4080050749003F575F003A4C5832577
:1003F100F0C5837302040D020417020420020425D0
:1004010002043002043902044102044FE4F521AE32
:1004110023AF24FC802F752101AE23AF24803275D8
:1004210021028017752103AE25AF267C0080167549
:100431002104AE25AF268019752105752211801A78
:100441007521067C007D0A12030E8F22800C752116
:10045100077C007D0A12030E8D22E521900B759316
:0B046100FFE522900B6393FD020B13DC
:100715000534AF34EF3395E0FEEF64094E70037591
:100725003401E53424F9600F14601924077021E4BD
:10073500F52175220D8019752106E53575F00A84B8
:10074500F522800C752107E53575F00A8485F022C0
:10075500E521900B7593FFE522900B6393FD020B4A
:010765001380
:08095600022A0000022C00003F
:100BC0005389F0438901758A18758CFCC28DD28CCB
:030BD000D2A92285
:03000B00020503E8
:10050300C0E0C0F0C083C082C0D075D000C000C0BE
:0D05130001C002C003C004C005C006C0073F
:10052000758A18758CFC7580FF7F04120863AE38DD
:10053000AF397C007D0A12030EC3EF9535EE9400AF
:10054000402A052BE52B7002052A9464E52A9400C5
:100550004021752A00752B00632DFF632CFFE52DCC
:10056000452C6004E4FD80067D018002E4FD7F03EC
:0E0570001207A9120003E4FF120863120A2901
:10057E00D007D006D005D004D003D002D001D000D1
:0B058E00D0D0D082D083D0F0D0E0327B
:100B2E00759850438E40538EFE53890F758BC77543
:0B0B3E008DFEC2ABD28ED2AFD2AC2233
:03002300020BAC21
:100BAC00309808C298859930752E01309905C299F4
:040BBC00752F00325F
:0A0C3800E52F70FC752F018F992243
:100A4E008B278A288929AB27AA28A9291202E360B5
:100A5E00130529E5297002052814F91202E3FF1285
:050A6E000C3880E222BB
:0D0C14006C65640D0A0074656D700D0A00BA
:10095F00E52E6028E530B4310F7D017F05120003CD
:10096F007BFF7A0C7914800EE530B4320C751F01C1
:0D097F007BFF7A0C791A120A4EE4F52E2245
:030003000207A948
:100026000202CEE86480F8E933E83360110460F038
:10003600ED33EC337009E8FCE9FDEAFEEBFF220440
:1000460060DED3EB9FEA9EE99DE8C2E78CF0C2F73B
:1000560095F0400CE8CCF8E9CDF9EACEFAEBCFFB07
:1000660012029985D0F05804700320D5B3E80470C5
:10007600075002B2D50202D892D5EC0460F7E4CC60
:10008600C0E0C398F8603B94186008400DD0E0FBD0
:100096000202B0E4FBFAC9FC8028E830E406E4C9B1
:1000A600FBE4CAFCE830E305E4C9CACBFCE8540724
:1000B6006010F8C3E913F9EA13FAEB13FBEC13FC2F
:1000C600D8F130F52FC3E49CFCEF9BFFEE9AFEEDD2
:1000D60099FDD0E0FBEF4E4D4C701222DB0302027D
:1000E600D5EC2CFCEF33FFEE33FEED33FDED30E7C0
:1000F600EB0202B0EF2BFFEE3AFEED39FDD0E0FB4E
:1001060050130BBB00030202D8ED13FDEE13FEEFF6
:0801160013FFEC13FC0202B020
:10011E00EC4D6011E8497017ED33EC3304600DE4DB
:10012E00FCFFFEFD22E933E8330470F80202CE1222
:10013E00029958046009E4CC248150062850090223
:10014E0002D82840030202D5C0E0EB4A7044B980C1
:10015E0006D0E0FB0202C4EF4E701CBD8008EBFF20
:10016E00EAFEE9FD80EBE98DF0A4FEE5F002020760
:10017E00E9CDF9EAFEEBFFEF89F0A4FCE5F0CE89BC
:10018E00F0A42EFFE435F0CD89F0A42DFEE435F079
:10019E008067EF4E7005BD80D780C3EF8BF0A4ACA7
:1001AE00F0EE8BF0A42CFCE435F0F8EF8AF0A42CE2
:1001BE00E5F038FCE433CB8DF0A42CFCE5F03BF8F5
:1001CE00EE8AF0A42CFCE5F038F8E433CF89F0A4E5
:1001DE002CFCE5F038CF3400CE89F0A42FFFE5F0EB
:1001EE003EFEE433C98DF0A42EFEE5F039CD8AF043
:1001FE00A42FFFE5F03EFEE43DFD33D0E0FB5007BB
:10020E000BBB000F0202D8EC2CFCEF33FFEE33FEDB
:06021E00ED33FD0202B009
:1002240075F020800E75F010800575F0087D007E55
:10023400007F003392D530D503120363EC334010B2
:10024400EF33FFEE33FEED33FDEC33FCD5F0ED225E
:0E025400E5F0247EA2D513CC92E7CDCEFF229A
:10026200EDD2E7CD33EC3392D524814006E4FFFE94
:10027200FDFC22FCE4CFCECDCC24E0501174FF80F3
:10028200EDC3CC13CCCD13CDCE13CECF13CF047090
:07029200F030D5DE0203632A
:10029900E9D2E7C933E833F892D5EDD2E7CD33ECAB
:0702A90033FC5002B2D52224
:1002B000EC30E7100FBF000C0EBE00080DBD0004AF
:1002C0000BEB6014A2D5EB13FCED92E7FD2274FF5B
:1002D000FCFDFEFF22E480F8A2D574FF13FC7D80B4
:0302E000E480EFC8
:030000000205995D
:0C059900787FE4F6D8FD75813B0205E098
:1002E300BB010689828A83E0225002E722BBFE0219
:0902F300E32289828A83E493224C
:1002FC00EF8DF0A4A8F0CF8CF0A428CE8DF0A42E16
:02030C00FE22CF
:10030E00BC000BBE0029EF8DF084FFADF022E4CCD3
:10031E00F875F008EF2FFFEE33FEEC33FCEE9DEC9C
:10032E00984005FCEE9DFE0FD5F0E9E4CEFD22EDE2
:10033E00F8F5F0EE8420D21CFEADF075F008EF2F2C
:10034E00FFED33FD4007985006D5F0F222C398FD1D
:05035E000FD5F0EA22BA
:0E036300C3E49FFFE49EFEE49DFDE49CFC22AB
:1005A50002098CE493A3F8E493A34003F68001F2D7
:1005B50008DFF48029E493A3F85407240CC8C33357
:1005C500C4540F4420C8834004F456800146F6DF26
:1005D500E4800B0102040810204080900931E47E7C
:1005E500019360BCA3FF543F30E509541FFEE4931B
:1005F500A360010ECF54C025E060A840B8E493A3E2
:10060500FAE493A3F8E493A3C8C582C8CAC583CA0C
:10061500F0A3C8C582C8CAC583CADFE9DEE780BEC4
:01095E000098
:00000001FF
